S00F0000636173736130312E73726563A9
S113000009C00EC00DC00CC00BC00AC009C008C096
S113001007C006C011241FBECFE9CDBF02D02FC038
S1130020EFCF8EE087BB83E088BB90E033E05CE0F9
S113003024E045E0B0991DC0953010F49F5FFACFDD
S113004058BB6FEF72E587E0615070408040E1F784
S113005000C0000089E028BBEFE769EA73E0E150E3
S113006060407040E1F700C000008150A1F748BB38
S1130070E1CF992311F09150DDCF38BBDBCFF89459
S1050080FFCFAC
S9030000FC
