:1000000009C00EC00DC00CC00BC00AC009C008C09A
:1000100007C006C011241FBECFE9CDBF02D02FC03C
:10002000EFCF86E187BB83E088BB20E033E044E18B
:1000300094E055E0B0991DC0253010F42F5FFACF41
:1000400048BB6FEF72E587E0615070408040E1F798
:1000500000C000008AE398BBEFE769EA73E0E15073
:1000600060407040E1F700C000008150A1F758BB2C
:10007000E1CF222311F02150DDCF38BBDBCFF89444
:02008000FFCFB0
:00000001FF
